{
  "contractName": "Debts",
  "abi": [
    {
      "inputs": [],
      "payable": false,
      "stateMutability": "nonpayable",
      "type": "constructor"
    },
    {
      "constant": false,
      "inputs": [
        {
          "internalType": "uint256",
          "name": "collateralProvided_in",
          "type": "uint256"
        },
        {
          "internalType": "uint256",
          "name": "amountOwed_in",
          "type": "uint256"
        },
        {
          "internalType": "uint256",
          "name": "interestRate_in",
          "type": "uint256"
        }
      ],
      "name": "initBorrower",
      "outputs": [],
      "payable": false,
      "stateMutability": "nonpayable",
      "type": "function"
    },
    {
      "constant": false,
      "inputs": [
        {
          "internalType": "uint256",
          "name": "collateralFactor",
          "type": "uint256"
        }
      ],
      "name": "liquidateAssets",
      "outputs": [
        {
          "internalType": "bool",
          "name": "",
          "type": "bool"
        }
      ],
      "payable": false,
      "stateMutability": "nonpayable",
      "type": "function"
    },
    {
      "constant": false,
      "inputs": [],
      "name": "incrementAmountOwed",
      "outputs": [],
      "payable": false,
      "stateMutability": "nonpayable",
      "type": "function"
    }
  ],
  "bytecode": "0x608060405234801561001057600080fd5b5060006001819055506105bf806100286000396000f3fe608060405234801561001057600080fd5b50600436106100415760003560e01c80631449ae36146100465780631aae2e8114610088578063f003722814610092575b600080fd5b6100866004803603606081101561005c57600080fd5b810190808035906020019092919080359060200190929190803590602001909291905050506100d8565b005b610090610344565b005b6100be600480360360208110156100a857600080fd5b81019080803590602001909291905050506103d9565b604051808215151515815260200191505060405180910390f35b600073ffffffffffffffffffffffffffffffffffffffff166000803373ffffffffffffffffffffffffffffffffffffffff1673ffffffffffffffffffffffffffffffffffffffff16815260200190815260200160002060000160009054906101000a900473ffffffffffffffffffffffffffffffffffffffff1673ffffffffffffffffffffffffffffffffffffffff16146101db576040517f08c379a00000000000000000000000000000000000000000000000000000000081526004018080602001828103825260118152602001807f616c726561647920626f72726f77696e6700000000000000000000000000000081525060200191505060405180910390fd5b336000803373ffffffffffffffffffffffffffffffffffffffff1673ffffffffffffffffffffffffffffffffffffffff16815260200190815260200160002060000160006101000a81548173ffffffffffffffffffffffffffffffffffffffff021916908373ffffffffffffffffffffffffffffffffffffffff160217905550826000803373ffffffffffffffffffffffffffffffffffffffff1673ffffffffffffffffffffffffffffffffffffffff16815260200190815260200160002060010181905550816000803373ffffffffffffffffffffffffffffffffffffffff1673ffffffffffffffffffffffffffffffffffffffff16815260200190815260200160002060020181905550806000803373ffffffffffffffffffffffffffffffffffffffff1673ffffffffffffffffffffffffffffffffffffffff16815260200190815260200160002060030181905550600160008154809291906001019190505550505050565b6000803373ffffffffffffffffffffffffffffffffffffffff1673ffffffffffffffffffffffffffffffffffffffff168152602001908152602001600020600301546001016000803373ffffffffffffffffffffffffffffffffffffffff1673ffffffffffffffffffffffffffffffffffffffff16815260200190815260200160002060020160008282540292505081905550565b600080821180156103eb575060018211155b61045d576040517f08c379a000000000000000000000000000000000000000000000000000000000815260040180806020018281038252601c8152602001807f436f6c6c61746572616c20666163746f7220697320696e76616c69640000000081525060200191505060405180910390fd5b6000803373ffffffffffffffffffffffffffffffffffffffff1673ffffffffffffffffffffffffffffffffffffffff1681526020019081526020016000206001015482026000803373ffffffffffffffffffffffffffffffffffffffff1673ffffffffffffffffffffffffffffffffffffffff1681526020019081526020016000206002015411156105805760008060003373ffffffffffffffffffffffffffffffffffffffff1673ffffffffffffffffffffffffffffffffffffffff1681526020019081526020016000206002018190555060008060003373ffffffffffffffffffffffffffffffffffffffff1673ffffffffffffffffffffffffffffffffffffffff1681526020019081526020016000206001018190555060019050610585565b600090505b91905056fea265627a7a7231582008dd1470e39d8a7c591b65f1a95fc6458f2042f58602334832ee6a6b987222f764736f6c63430005100032",
  "source": "// SPDX-License-Identifier: MIT\npragma solidity >=0.4.22 <0.9.0;\n\ncontract Debts {\n    \n    struct debt {\n        address borrowerAddress;\n        uint256 collateralProvided;\n        uint256 amountOwed;\n        uint256 interestRate;\n    }\n\n    mapping(address => debt) private debts; \n\n    uint256 borrowerCount;\n\n    constructor() public{\n        borrowerCount=0;\n    }\n\n    function initBorrower(uint256 collateralProvided_in, uint256 amountOwed_in, uint256 interestRate_in) public{\n        require(debts[msg.sender].borrowerAddress == address(0x0000000000000000000000000000000000000000),\"already borrowing\");\n        debts[msg.sender].borrowerAddress = msg.sender;\n        debts[msg.sender].collateralProvided = collateralProvided_in;\n        debts[msg.sender].amountOwed = amountOwed_in;\n        debts[msg.sender].interestRate = interestRate_in;\n\n        borrowerCount++;\n\n\n    }\n\n    function liquidateAssets(uint256 collateralFactor) public returns(bool){\n        require(collateralFactor >0 && collateralFactor <= 1, \"Collateral factor is invalid\");\n        if(debts[msg.sender].amountOwed > collateralFactor * debts[msg.sender].collateralProvided){\n\n            debts[msg.sender].amountOwed = 0;\n            debts[msg.sender].collateralProvided = 0;\n            return true;\n\n        }else{\n\n            return false;\n\n        }\n    }\n\n    function incrementAmountOwed() public{\n        debts[msg.sender].amountOwed *= (1+debts[msg.sender].interestRate);\n    }\n}\n\n\n",
  "sourcePath": "/Users/raunakmukherjee/Documents/truffle-test/contracts/Debts.sol",
  "compiler": {
    "name": "solc",
    "version": "0.5.16+commit.9c3226ce.Emscripten.clang"
  },
  "schemaVersion": "3.4.3",
  "updatedAt": "2021-08-18T06:45:32.022Z",
  "networkType": "ethereum",
  "devdoc": {
    "methods": {}
  },
  "userdoc": {
    "methods": {}
  }
}