{
  "contractName": "Debts",
  "abi": [
    {
      "inputs": [],
      "payable": false,
      "stateMutability": "nonpayable",
      "type": "constructor"
    },
    {
      "anonymous": false,
      "inputs": [
        {
          "indexed": true,
          "internalType": "address",
          "name": "_from",
          "type": "address"
        },
        {
          "indexed": true,
          "internalType": "uint256",
          "name": "_userCount",
          "type": "uint256"
        }
      ],
      "name": "debtCreated",
      "type": "event"
    },
    {
      "constant": true,
      "inputs": [
        {
          "internalType": "address",
          "name": "",
          "type": "address"
        }
      ],
      "name": "debts",
      "outputs": [
        {
          "internalType": "address",
          "name": "borrowerAddress",
          "type": "address"
        },
        {
          "internalType": "uint256",
          "name": "collateralProvided",
          "type": "uint256"
        },
        {
          "internalType": "uint256",
          "name": "collateralFactor",
          "type": "uint256"
        },
        {
          "internalType": "uint256",
          "name": "amountOwed",
          "type": "uint256"
        },
        {
          "internalType": "uint256",
          "name": "interestRate",
          "type": "uint256"
        }
      ],
      "payable": false,
      "stateMutability": "view",
      "type": "function"
    },
    {
      "constant": false,
      "inputs": [
        {
          "internalType": "uint256",
          "name": "collateralProvided_in",
          "type": "uint256"
        },
        {
          "internalType": "uint256",
          "name": "collateralFactor_in",
          "type": "uint256"
        },
        {
          "internalType": "uint256",
          "name": "amountOwed_in",
          "type": "uint256"
        },
        {
          "internalType": "uint256",
          "name": "interestRate_in",
          "type": "uint256"
        }
      ],
      "name": "initBorrower",
      "outputs": [],
      "payable": false,
      "stateMutability": "nonpayable",
      "type": "function"
    },
    {
      "constant": false,
      "inputs": [],
      "name": "liquidateAssets",
      "outputs": [
        {
          "internalType": "bool",
          "name": "",
          "type": "bool"
        }
      ],
      "payable": false,
      "stateMutability": "nonpayable",
      "type": "function"
    },
    {
      "constant": false,
      "inputs": [],
      "name": "incrementAmountOwed",
      "outputs": [],
      "payable": false,
      "stateMutability": "nonpayable",
      "type": "function"
    },
    {
      "constant": true,
      "inputs": [],
      "name": "getDebt",
      "outputs": [
        {
          "internalType": "uint256",
          "name": "",
          "type": "uint256"
        },
        {
          "internalType": "uint256",
          "name": "",
          "type": "uint256"
        },
        {
          "internalType": "uint256",
          "name": "",
          "type": "uint256"
        },
        {
          "internalType": "uint256",
          "name": "",
          "type": "uint256"
        }
      ],
      "payable": false,
      "stateMutability": "view",
      "type": "function"
    },
    {
      "constant": true,
      "inputs": [],
      "name": "testFunction",
      "outputs": [
        {
          "internalType": "string",
          "name": "",
          "type": "string"
        }
      ],
      "payable": false,
      "stateMutability": "view",
      "type": "function"
    }
  ],
  "bytecode": "0x608060405234801561001057600080fd5b506000600181905550610860806100286000396000f3fe608060405234801561001057600080fd5b50600436106100625760003560e01c806314a6bf0f146100675780631aae2e811461009a5780632ecd4e7d146100a4578063584468d71461014457806389a8e76a14610190578063e16b4a9b146101b2575b600080fd5b61006f610235565b6040518085815260200184815260200183815260200182815260200194505050505060405180910390f35b6100a2610351565b005b6100e6600480360360208110156100ba57600080fd5b81019080803573ffffffffffffffffffffffffffffffffffffffff16906020019092919050505061042a565b604051808673ffffffffffffffffffffffffffffffffffffffff1673ffffffffffffffffffffffffffffffffffffffff1681526020018581526020018481526020018381526020018281526020019550505050505060405180910390f35b61018e6004803603608081101561015a57600080fd5b8101908080359060200190929190803590602001909291908035906020019092919080359060200190929190505050610480565b005b610198610676565b604051808215151515815260200191505060405180910390f35b6101ba6107ee565b6040518080602001828103825283818151815260200191508051906020019080838360005b838110156101fa5780820151818401526020810190506101df565b50505050905090810190601f1680156102275780820380516001836020036101000a031916815260200191505b509250505060405180910390f35b6000806000806000803373ffffffffffffffffffffffffffffffffffffffff1673ffffffffffffffffffffffffffffffffffffffff168152602001908152602001600020600101546000803373ffffffffffffffffffffffffffffffffffffffff1673ffffffffffffffffffffffffffffffffffffffff168152602001908152602001600020600201546000803373ffffffffffffffffffffffffffffffffffffffff1673ffffffffffffffffffffffffffffffffffffffff168152602001908152602001600020600301546000803373ffffffffffffffffffffffffffffffffffffffff1673ffffffffffffffffffffffffffffffffffffffff16815260200190815260200160002060040154935093509350935090919293565b60646000803373ffffffffffffffffffffffffffffffffffffffff1673ffffffffffffffffffffffffffffffffffffffff1681526020019081526020016000206003015460646000803373ffffffffffffffffffffffffffffffffffffffff1673ffffffffffffffffffffffffffffffffffffffff168152602001908152602001600020600401540102816103e257fe5b046000803373ffffffffffffffffffffffffffffffffffffffff1673ffffffffffffffffffffffffffffffffffffffff16815260200190815260200160002060030181905550565b60006020528060005260406000206000915090508060000160009054906101000a900473ffffffffffffffffffffffffffffffffffffffff16908060010154908060020154908060030154908060040154905085565b336000803373ffffffffffffffffffffffffffffffffffffffff1673ffffffffffffffffffffffffffffffffffffffff16815260200190815260200160002060000160006101000a81548173ffffffffffffffffffffffffffffffffffffffff021916908373ffffffffffffffffffffffffffffffffffffffff160217905550836000803373ffffffffffffffffffffffffffffffffffffffff1673ffffffffffffffffffffffffffffffffffffffff16815260200190815260200160002060010181905550826000803373ffffffffffffffffffffffffffffffffffffffff1673ffffffffffffffffffffffffffffffffffffffff16815260200190815260200160002060020181905550816000803373ffffffffffffffffffffffffffffffffffffffff1673ffffffffffffffffffffffffffffffffffffffff16815260200190815260200160002060030181905550806000803373ffffffffffffffffffffffffffffffffffffffff1673ffffffffffffffffffffffffffffffffffffffff168152602001908152602001600020600401819055506001600081548092919060010191905055506001543373ffffffffffffffffffffffffffffffffffffffff167f3b403916dbd583a80bd32363b5e2e5880cfb335a50a41a92c312d8a84cbea97160405160405180910390a350505050565b600060646000803373ffffffffffffffffffffffffffffffffffffffff1673ffffffffffffffffffffffffffffffffffffffff168152602001908152602001600020600101546000803373ffffffffffffffffffffffffffffffffffffffff1673ffffffffffffffffffffffffffffffffffffffff16815260200190815260200160002060020154028161070657fe5b046000803373ffffffffffffffffffffffffffffffffffffffff1673ffffffffffffffffffffffffffffffffffffffff1681526020019081526020016000206003015411156107e65760008060003373ffffffffffffffffffffffffffffffffffffffff1673ffffffffffffffffffffffffffffffffffffffff1681526020019081526020016000206003018190555060008060003373ffffffffffffffffffffffffffffffffffffffff1673ffffffffffffffffffffffffffffffffffffffff16815260200190815260200160002060010181905550600190506107eb565b600090505b90565b60606040518060400160405280600581526020017f48656c6c6f00000000000000000000000000000000000000000000000000000081525090509056fea265627a7a7231582095dd71024c4ed822ea38f37dabce3d56363a878199ba0f5930133947bd51b51d64736f6c63430005100032",
  "source": "// SPDX-License-Identifier: MIT\npragma solidity >=0.4.22 <0.9.0;\n\ncontract Debts {\n    \n    struct debt {\n        address borrowerAddress;\n        uint256 collateralProvided;\n        uint256 collateralFactor;\n        uint256 amountOwed;\n        uint256 interestRate;\n    }\n\n    mapping(address => debt) public debts; \n\n    uint256 borrowerCount;\n\n    event debtCreated(address indexed _from, uint256 indexed _userCount);\n\n    constructor() public{\n        borrowerCount=0;\n    }\n\n    function initBorrower(uint256 collateralProvided_in, uint256 collateralFactor_in, uint256 amountOwed_in, uint256 interestRate_in) public{\n        \n        // require(collateralProvided_in*collateralFactor_in/100 >= amountOwed_in,\"insufficient collateral provided\");\n        debts[msg.sender].borrowerAddress = msg.sender;\n        debts[msg.sender].collateralProvided = collateralProvided_in;\n        debts[msg.sender].collateralFactor = collateralFactor_in;\n        debts[msg.sender].amountOwed = amountOwed_in;\n        debts[msg.sender].interestRate = interestRate_in;\n\n        borrowerCount++;\n\n        emit debtCreated(msg.sender,borrowerCount);\n    }\n\n    function liquidateAssets() public returns(bool){\n        \n        if(debts[msg.sender].amountOwed > debts[msg.sender].collateralFactor * debts[msg.sender].collateralProvided/100){\n\n            debts[msg.sender].amountOwed = 0;\n            debts[msg.sender].collateralProvided = 0;\n            return true;\n\n        }else{\n\n            return false;\n\n        }\n    }\n\n    function incrementAmountOwed() public{\n        debts[msg.sender].amountOwed = (debts[msg.sender].interestRate+100)*debts[msg.sender].amountOwed/100;\n    }\n    \n    function getDebt() public view returns(uint256,uint256,uint256,uint256){\n        return (debts[msg.sender].collateralProvided,debts[msg.sender].collateralFactor,debts[msg.sender].amountOwed,debts[msg.sender].interestRate);\n    }\n\n    function testFunction() public view returns( string memory ){\n        return (\"Hello\");\n    }\n\n    \n}\n\n\n",
  "sourcePath": "/Users/raunakmukherjee/Documents/truffle-test/contracts/Debts.sol",
  "compiler": {
    "name": "solc",
    "version": "0.5.16+commit.9c3226ce.Emscripten.clang"
  },
  "schemaVersion": "3.4.3",
  "updatedAt": "2021-08-18T20:36:20.890Z",
  "devdoc": {
    "methods": {}
  },
  "userdoc": {
    "methods": {}
  }
}